{
  "_format": "hh-sol-artifact-1",
  "contractName": "Greeter",
  "sourceName": "contracts/Greeter.sol",
  "abi": [
    {
      "inputs": [
        {
          "internalType": "address",
          "name": "semaphoreAddress",
          "type": "address"
        },
        {
          "internalType": "uint256",
          "name": "_groupId",
          "type": "uint256"
        }
      ],
      "stateMutability": "nonpayable",
      "type": "constructor"
    },
    {
      "anonymous": false,
      "inputs": [
        {
          "indexed": false,
          "internalType": "string",
          "name": "greeting",
          "type": "string"
        }
      ],
      "name": "NewGreeting",
      "type": "event"
    },
    {
      "anonymous": false,
      "inputs": [
        {
          "indexed": false,
          "internalType": "uint256",
          "name": "identityCommitment",
          "type": "uint256"
        },
        {
          "indexed": false,
          "internalType": "bytes32",
          "name": "username",
          "type": "bytes32"
        }
      ],
      "name": "NewUser",
      "type": "event"
    },
    {
      "inputs": [
        {
          "internalType": "string",
          "name": "greeting",
          "type": "string"
        },
        {
          "internalType": "uint256",
          "name": "merkleTreeRoot",
          "type": "uint256"
        },
        {
          "internalType": "uint256",
          "name": "nullifierHash",
          "type": "uint256"
        },
        {
          "internalType": "uint256[8]",
          "name": "proof",
          "type": "uint256[8]"
        }
      ],
      "name": "greet",
      "outputs": [],
      "stateMutability": "nonpayable",
      "type": "function"
    },
    {
      "inputs": [],
      "name": "groupId",
      "outputs": [
        {
          "internalType": "uint256",
          "name": "",
          "type": "uint256"
        }
      ],
      "stateMutability": "view",
      "type": "function"
    },
    {
      "inputs": [
        {
          "internalType": "uint256",
          "name": "identityCommitment",
          "type": "uint256"
        },
        {
          "internalType": "bytes32",
          "name": "username",
          "type": "bytes32"
        }
      ],
      "name": "joinGroup",
      "outputs": [],
      "stateMutability": "nonpayable",
      "type": "function"
    },
    {
      "inputs": [],
      "name": "semaphore",
      "outputs": [
        {
          "internalType": "contract ISemaphore",
          "name": "",
          "type": "address"
        }
      ],
      "stateMutability": "view",
      "type": "function"
    },
    {
      "inputs": [
        {
          "internalType": "uint256",
          "name": "",
          "type": "uint256"
        }
      ],
      "name": "users",
      "outputs": [
        {
          "internalType": "bytes32",
          "name": "",
          "type": "bytes32"
        }
      ],
      "stateMutability": "view",
      "type": "function"
    }
  ],
  "bytecode": "0x60806040523480156200001157600080fd5b5060405162000a3238038062000a3283398181016040528101906200003791906200014d565b816000806101000a81548173ffffffffffffffffffffffffffffffffffffffff021916908373ffffffffffffffffffffffffffffffffffffffff1602179055508060018190555060008054906101000a900473ffffffffffffffffffffffffffffffffffffffff1673ffffffffffffffffffffffffffffffffffffffff1663059f1bb560015460146000306040518563ffffffff1660e01b8152600401620000e39493929190620001d2565b600060405180830381600087803b158015620000fe57600080fd5b505af115801562000113573d6000803e3d6000fd5b505050505050620002b9565b600081519050620001308162000285565b92915050565b60008151905062000147816200029f565b92915050565b600080604083850312156200016157600080fd5b600062000171858286016200011f565b9250506020620001848582860162000136565b9150509250929050565b62000199816200021f565b82525050565b620001aa816200025d565b82525050565b620001bb8162000271565b82525050565b620001cc8162000253565b82525050565b6000608082019050620001e96000830187620001c1565b620001f86020830186620001b0565b6200020760408301856200019f565b6200021660608301846200018e565b95945050505050565b60006200022c8262000233565b9050919050565b600073ffffffffffffffffffffffffffffffffffffffff82169050919050565b6000819050919050565b60006200026a8262000253565b9050919050565b60006200027e8262000253565b9050919050565b62000290816200021f565b81146200029c57600080fd5b50565b620002aa8162000253565b8114620002b657600080fd5b50565b61076980620002c96000396000f3fe608060405234801561001057600080fd5b50600436106100575760003560e01c8063365b98b21461005c5780637b5d25341461008c578063a0f44c92146100aa578063a3867d91146100c8578063f3326aed146100e4575b600080fd5b6100766004803603810190610071919061043a565b610100565b6040516100839190610548565b60405180910390f35b610094610118565b6040516100a19190610563565b60405180910390f35b6100b261013c565b6040516100bf91906105a2565b60405180910390f35b6100e260048036038101906100dd9190610463565b610142565b005b6100fe60048036038101906100f991906103b9565b610226565b005b60026020528060005260406000206000915090505481565b60008054906101000a900473ffffffffffffffffffffffffffffffffffffffff1681565b60015481565b60008054906101000a900473ffffffffffffffffffffffffffffffffffffffff1673ffffffffffffffffffffffffffffffffffffffff16631783efc3600154846040518363ffffffff1660e01b815260040161019f9291906105e6565b600060405180830381600087803b1580156101b957600080fd5b505af11580156101cd573d6000803e3d6000fd5b505050508060026000848152602001908152602001600020819055507fa50a3b4d29437818306d1859dff6fb2b1884a4f487bd1d91a8cc026ac4c94537828260405161021a9291906105bd565b60405180910390a15050565b60008054906101000a900473ffffffffffffffffffffffffffffffffffffffff1673ffffffffffffffffffffffffffffffffffffffff16638b69310a60015485888860405160200161027992919061052f565b6040516020818303038152906040528051906020012086600154876040518763ffffffff1660e01b81526004016102b59695949392919061060f565b600060405180830381600087803b1580156102cf57600080fd5b505af11580156102e3573d6000803e3d6000fd5b505050507f0d332ed5c7d6f1999116748c0eb99c740f276d879d025a5be6435fcf177785de858560405161031892919061057e565b60405180910390a15050505050565b60008190508260206008028201111561033f57600080fd5b92915050565b60008135905061035481610705565b92915050565b60008083601f84011261036c57600080fd5b8235905067ffffffffffffffff81111561038557600080fd5b60208301915083600182028301111561039d57600080fd5b9250929050565b6000813590506103b38161071c565b92915050565b600080600080600061016086880312156103d257600080fd5b600086013567ffffffffffffffff8111156103ec57600080fd5b6103f88882890161035a565b9550955050602061040b888289016103a4565b935050604061041c888289016103a4565b925050606061042d88828901610327565b9150509295509295909350565b60006020828403121561044c57600080fd5b600061045a848285016103a4565b91505092915050565b6000806040838503121561047657600080fd5b6000610484858286016103a4565b925050602061049585828601610345565b9150509250929050565b6104ac61010083836106e5565b5050565b6104b98161068d565b82525050565b6104c8816106c1565b82525050565b60006104da8385610671565b93506104e78385846106e5565b6104f0836106f4565b840190509392505050565b60006105078385610682565b93506105148385846106e5565b82840190509392505050565b610529816106b7565b82525050565b600061053c8284866104fb565b91508190509392505050565b600060208201905061055d60008301846104b0565b92915050565b600060208201905061057860008301846104bf565b92915050565b600060208201905081810360008301526105998184866104ce565b90509392505050565b60006020820190506105b76000830184610520565b92915050565b60006040820190506105d26000830185610520565b6105df60208301846104b0565b9392505050565b60006040820190506105fb6000830185610520565b6106086020830184610520565b9392505050565b60006101a0820190506106256000830189610520565b6106326020830188610520565b61063f60408301876104b0565b61064c6060830186610520565b6106596080830185610520565b61066660a083018461049f565b979650505050505050565b600082825260208201905092915050565b600081905092915050565b6000819050919050565b600073ffffffffffffffffffffffffffffffffffffffff82169050919050565b6000819050919050565b60006106cc826106d3565b9050919050565b60006106de82610697565b9050919050565b82818337600083830152505050565b6000601f19601f8301169050919050565b61070e8161068d565b811461071957600080fd5b50565b610725816106b7565b811461073057600080fd5b5056fea26469706673582212200ea9459381d113bad6271247e30047ec2d544320526288de8431bb7295ea79a664736f6c63430008040033",
  "linkReferences": {},
  "deployedLinkReferences": {}
}