{
  "_format": "hh-sol-artifact-1",
  "contractName": "Greeter",
  "sourceName": "contracts/Greeter.sol",
  "abi": [
    {
      "inputs": [
        {
          "internalType": "address",
          "name": "semaphoreAddress",
          "type": "address"
        },
        {
          "internalType": "uint256",
          "name": "_groupId",
          "type": "uint256"
        }
      ],
      "stateMutability": "nonpayable",
      "type": "constructor"
    },
    {
      "anonymous": false,
      "inputs": [
        {
          "indexed": false,
          "internalType": "bytes32",
          "name": "greeting",
          "type": "bytes32"
        }
      ],
      "name": "NewGreeting",
      "type": "event"
    },
    {
      "anonymous": false,
      "inputs": [
        {
          "indexed": false,
          "internalType": "uint256",
          "name": "identityCommitment",
          "type": "uint256"
        },
        {
          "indexed": false,
          "internalType": "bytes32",
          "name": "username",
          "type": "bytes32"
        }
      ],
      "name": "NewUser",
      "type": "event"
    },
    {
      "inputs": [
        {
          "internalType": "bytes32",
          "name": "greeting",
          "type": "bytes32"
        },
        {
          "internalType": "uint256",
          "name": "merkleTreeRoot",
          "type": "uint256"
        },
        {
          "internalType": "uint256",
          "name": "nullifierHash",
          "type": "uint256"
        },
        {
          "internalType": "uint256[8]",
          "name": "proof",
          "type": "uint256[8]"
        }
      ],
      "name": "greet",
      "outputs": [],
      "stateMutability": "nonpayable",
      "type": "function"
    },
    {
      "inputs": [],
      "name": "groupId",
      "outputs": [
        {
          "internalType": "uint256",
          "name": "",
          "type": "uint256"
        }
      ],
      "stateMutability": "view",
      "type": "function"
    },
    {
      "inputs": [
        {
          "internalType": "uint256",
          "name": "identityCommitment",
          "type": "uint256"
        },
        {
          "internalType": "bytes32",
          "name": "username",
          "type": "bytes32"
        }
      ],
      "name": "joinGroup",
      "outputs": [],
      "stateMutability": "nonpayable",
      "type": "function"
    },
    {
      "inputs": [],
      "name": "semaphore",
      "outputs": [
        {
          "internalType": "contract ISemaphore",
          "name": "",
          "type": "address"
        }
      ],
      "stateMutability": "view",
      "type": "function"
    },
    {
      "inputs": [
        {
          "internalType": "uint256",
          "name": "",
          "type": "uint256"
        }
      ],
      "name": "users",
      "outputs": [
        {
          "internalType": "bytes32",
          "name": "",
          "type": "bytes32"
        }
      ],
      "stateMutability": "view",
      "type": "function"
    }
  ],
  "bytecode": "0x60806040523480156200001157600080fd5b50604051620008e4380380620008e483398181016040528101906200003791906200014d565b816000806101000a81548173ffffffffffffffffffffffffffffffffffffffff021916908373ffffffffffffffffffffffffffffffffffffffff1602179055508060018190555060008054906101000a900473ffffffffffffffffffffffffffffffffffffffff1673ffffffffffffffffffffffffffffffffffffffff1663059f1bb560015460146000306040518563ffffffff1660e01b8152600401620000e39493929190620001d2565b600060405180830381600087803b158015620000fe57600080fd5b505af115801562000113573d6000803e3d6000fd5b505050505050620002b9565b600081519050620001308162000285565b92915050565b60008151905062000147816200029f565b92915050565b600080604083850312156200016157600080fd5b600062000171858286016200011f565b9250506020620001848582860162000136565b9150509250929050565b62000199816200021f565b82525050565b620001aa816200025d565b82525050565b620001bb8162000271565b82525050565b620001cc8162000253565b82525050565b6000608082019050620001e96000830187620001c1565b620001f86020830186620001b0565b6200020760408301856200019f565b6200021660608301846200018e565b95945050505050565b60006200022c8262000233565b9050919050565b600073ffffffffffffffffffffffffffffffffffffffff82169050919050565b6000819050919050565b60006200026a8262000253565b9050919050565b60006200027e8262000253565b9050919050565b62000290816200021f565b81146200029c57600080fd5b50565b620002aa8162000253565b8114620002b657600080fd5b50565b61061b80620002c96000396000f3fe608060405234801561001057600080fd5b50600436106100575760003560e01c8063365b98b21461005c5780637b5d25341461008c578063a0f44c92146100aa578063a3867d91146100c8578063a3a8e3c5146100e4575b600080fd5b610076600480360381019061007191906103a8565b610100565b604051610083919061044b565b60405180910390f35b610094610118565b6040516100a19190610466565b60405180910390f35b6100b261013c565b6040516100bf9190610481565b60405180910390f35b6100e260048036038101906100dd91906103d1565b610142565b005b6100fe60048036038101906100f99190610344565b610226565b005b60026020528060005260406000206000915090505481565b60008054906101000a900473ffffffffffffffffffffffffffffffffffffffff1681565b60015481565b60008054906101000a900473ffffffffffffffffffffffffffffffffffffffff1673ffffffffffffffffffffffffffffffffffffffff16631783efc3600154846040518363ffffffff1660e01b815260040161019f9291906104c5565b600060405180830381600087803b1580156101b957600080fd5b505af11580156101cd573d6000803e3d6000fd5b505050508060026000848152602001908152602001600020819055507fa50a3b4d29437818306d1859dff6fb2b1884a4f487bd1d91a8cc026ac4c94537828260405161021a92919061049c565b60405180910390a15050565b60008054906101000a900473ffffffffffffffffffffffffffffffffffffffff1673ffffffffffffffffffffffffffffffffffffffff16638b69310a600154858786600154876040518763ffffffff1660e01b815260040161028d969594939291906104ee565b600060405180830381600087803b1580156102a757600080fd5b505af11580156102bb573d6000803e3d6000fd5b505050507fdca4fe235351d51f8e3444599c9a1afc6d12397dcdc4fd5df11bb6cfe0eb5a77846040516102ee919061044b565b60405180910390a150505050565b60008190508260206008028201111561031457600080fd5b92915050565b600081359050610329816105b7565b92915050565b60008135905061033e816105ce565b92915050565b600080600080610160858703121561035b57600080fd5b60006103698782880161031a565b945050602061037a8782880161032f565b935050604061038b8782880161032f565b925050606061039c878288016102fc565b91505092959194509250565b6000602082840312156103ba57600080fd5b60006103c88482850161032f565b91505092915050565b600080604083850312156103e457600080fd5b60006103f28582860161032f565b92505060206104038582860161031a565b9150509250929050565b61041a61010083836105a8565b5050565b61042781610550565b82525050565b61043681610584565b82525050565b6104458161057a565b82525050565b6000602082019050610460600083018461041e565b92915050565b600060208201905061047b600083018461042d565b92915050565b6000602082019050610496600083018461043c565b92915050565b60006040820190506104b1600083018561043c565b6104be602083018461041e565b9392505050565b60006040820190506104da600083018561043c565b6104e7602083018461043c565b9392505050565b60006101a082019050610504600083018961043c565b610511602083018861043c565b61051e604083018761041e565b61052b606083018661043c565b610538608083018561043c565b61054560a083018461040d565b979650505050505050565b6000819050919050565b600073ffffffffffffffffffffffffffffffffffffffff82169050919050565b6000819050919050565b600061058f82610596565b9050919050565b60006105a18261055a565b9050919050565b82818337600083830152505050565b6105c081610550565b81146105cb57600080fd5b50565b6105d78161057a565b81146105e257600080fd5b5056fea2646970667358221220eb79448005e9f79c3fc433047c7f933d1ad33fd15ede765b86e95593d582195e64736f6c63430008040033",
  "linkReferences": {},
  "deployedLinkReferences": {}
}