{
  "_format": "hh-sol-artifact-1",
  "contractName": "Feedback",
  "sourceName": "contracts/Feedback.sol",
  "abi": [
    {
      "inputs": [
        {
          "internalType": "address",
          "name": "semaphoreAddress",
          "type": "address"
        },
        {
          "internalType": "uint256",
          "name": "_groupId",
          "type": "uint256"
        }
      ],
      "stateMutability": "nonpayable",
      "type": "constructor"
    },
    {
      "inputs": [],
      "name": "Feedback__UsernameAlreadyExists",
      "type": "error"
    },
    {
      "anonymous": false,
      "inputs": [
        {
          "indexed": false,
          "internalType": "string",
          "name": "feedback",
          "type": "string"
        }
      ],
      "name": "NewFeedback",
      "type": "event"
    },
    {
      "anonymous": false,
      "inputs": [
        {
          "indexed": false,
          "internalType": "uint256",
          "name": "identityCommitment",
          "type": "uint256"
        },
        {
          "indexed": false,
          "internalType": "bytes32",
          "name": "username",
          "type": "bytes32"
        }
      ],
      "name": "NewUser",
      "type": "event"
    },
    {
      "inputs": [],
      "name": "groupId",
      "outputs": [
        {
          "internalType": "uint256",
          "name": "",
          "type": "uint256"
        }
      ],
      "stateMutability": "view",
      "type": "function"
    },
    {
      "inputs": [
        {
          "internalType": "uint256",
          "name": "identityCommitment",
          "type": "uint256"
        },
        {
          "internalType": "bytes32",
          "name": "username",
          "type": "bytes32"
        }
      ],
      "name": "joinGroup",
      "outputs": [],
      "stateMutability": "nonpayable",
      "type": "function"
    },
    {
      "inputs": [],
      "name": "semaphore",
      "outputs": [
        {
          "internalType": "contract ISemaphore",
          "name": "",
          "type": "address"
        }
      ],
      "stateMutability": "view",
      "type": "function"
    },
    {
      "inputs": [
        {
          "internalType": "string",
          "name": "feedback",
          "type": "string"
        },
        {
          "internalType": "uint256",
          "name": "merkleTreeRoot",
          "type": "uint256"
        },
        {
          "internalType": "uint256",
          "name": "nullifierHash",
          "type": "uint256"
        },
        {
          "internalType": "uint256[8]",
          "name": "proof",
          "type": "uint256[8]"
        }
      ],
      "name": "sendFeedback",
      "outputs": [],
      "stateMutability": "nonpayable",
      "type": "function"
    },
    {
      "inputs": [
        {
          "internalType": "uint256",
          "name": "",
          "type": "uint256"
        }
      ],
      "name": "users",
      "outputs": [
        {
          "internalType": "bytes32",
          "name": "",
          "type": "bytes32"
        }
      ],
      "stateMutability": "view",
      "type": "function"
    }
  ],
  "bytecode": "0x60806040523480156200001157600080fd5b5060405162000a8138038062000a8183398181016040528101906200003791906200014d565b816000806101000a81548173ffffffffffffffffffffffffffffffffffffffff021916908373ffffffffffffffffffffffffffffffffffffffff1602179055508060018190555060008054906101000a900473ffffffffffffffffffffffffffffffffffffffff1673ffffffffffffffffffffffffffffffffffffffff1663059f1bb560015460146000306040518563ffffffff1660e01b8152600401620000e39493929190620001d2565b600060405180830381600087803b158015620000fe57600080fd5b505af115801562000113573d6000803e3d6000fd5b505050505050620002b9565b600081519050620001308162000285565b92915050565b60008151905062000147816200029f565b92915050565b600080604083850312156200016157600080fd5b600062000171858286016200011f565b9250506020620001848582860162000136565b9150509250929050565b62000199816200021f565b82525050565b620001aa816200025d565b82525050565b620001bb8162000271565b82525050565b620001cc8162000253565b82525050565b6000608082019050620001e96000830187620001c1565b620001f86020830186620001b0565b6200020760408301856200019f565b6200021660608301846200018e565b95945050505050565b60006200022c8262000233565b9050919050565b600073ffffffffffffffffffffffffffffffffffffffff82169050919050565b6000819050919050565b60006200026a8262000253565b9050919050565b60006200027e8262000253565b9050919050565b62000290816200021f565b81146200029c57600080fd5b50565b620002aa8162000253565b8114620002b657600080fd5b50565b6107b880620002c96000396000f3fe608060405234801561001057600080fd5b50600436106100575760003560e01c8063365b98b21461005c5780637b5d25341461008c578063a0f44c92146100aa578063a3867d91146100c8578063c168d389146100e4575b600080fd5b61007660048036038101906100719190610489565b610100565b6040516100839190610597565b60405180910390f35b610094610118565b6040516100a191906105b2565b60405180910390f35b6100b261013c565b6040516100bf91906105f1565b60405180910390f35b6100e260048036038101906100dd91906104b2565b610142565b005b6100fe60048036038101906100f99190610408565b610275565b005b60026020528060005260406000206000915090505481565b60008054906101000a900473ffffffffffffffffffffffffffffffffffffffff1681565b60015481565b6000801b600260008481526020019081526020016000205414610191576040517f316eff1b00000000000000000000000000000000000000000000000000000000815260040160405180910390fd5b60008054906101000a900473ffffffffffffffffffffffffffffffffffffffff1673ffffffffffffffffffffffffffffffffffffffff16631783efc3600154846040518363ffffffff1660e01b81526004016101ee929190610635565b600060405180830381600087803b15801561020857600080fd5b505af115801561021c573d6000803e3d6000fd5b505050508060026000848152602001908152602001600020819055507fa50a3b4d29437818306d1859dff6fb2b1884a4f487bd1d91a8cc026ac4c94537828260405161026992919061060c565b60405180910390a15050565b60008054906101000a900473ffffffffffffffffffffffffffffffffffffffff1673ffffffffffffffffffffffffffffffffffffffff16638b69310a6001548588886040516020016102c892919061057e565b6040516020818303038152906040528051906020012086600154876040518763ffffffff1660e01b81526004016103049695949392919061065e565b600060405180830381600087803b15801561031e57600080fd5b505af1158015610332573d6000803e3d6000fd5b505050507fd936384985fbeb5485277e7930761ee4a85ee145bd3f905ca7c36f6021af5c7f85856040516103679291906105cd565b60405180910390a15050505050565b60008190508260206008028201111561038e57600080fd5b92915050565b6000813590506103a381610754565b92915050565b60008083601f8401126103bb57600080fd5b8235905067ffffffffffffffff8111156103d457600080fd5b6020830191508360018202830111156103ec57600080fd5b9250929050565b6000813590506104028161076b565b92915050565b6000806000806000610160868803121561042157600080fd5b600086013567ffffffffffffffff81111561043b57600080fd5b610447888289016103a9565b9550955050602061045a888289016103f3565b935050604061046b888289016103f3565b925050606061047c88828901610376565b9150509295509295909350565b60006020828403121561049b57600080fd5b60006104a9848285016103f3565b91505092915050565b600080604083850312156104c557600080fd5b60006104d3858286016103f3565b92505060206104e485828601610394565b9150509250929050565b6104fb6101008383610734565b5050565b610508816106dc565b82525050565b61051781610710565b82525050565b600061052983856106c0565b9350610536838584610734565b61053f83610743565b840190509392505050565b600061055683856106d1565b9350610563838584610734565b82840190509392505050565b61057881610706565b82525050565b600061058b82848661054a565b91508190509392505050565b60006020820190506105ac60008301846104ff565b92915050565b60006020820190506105c7600083018461050e565b92915050565b600060208201905081810360008301526105e881848661051d565b90509392505050565b6000602082019050610606600083018461056f565b92915050565b6000604082019050610621600083018561056f565b61062e60208301846104ff565b9392505050565b600060408201905061064a600083018561056f565b610657602083018461056f565b9392505050565b60006101a082019050610674600083018961056f565b610681602083018861056f565b61068e60408301876104ff565b61069b606083018661056f565b6106a8608083018561056f565b6106b560a08301846104ee565b979650505050505050565b600082825260208201905092915050565b600081905092915050565b6000819050919050565b600073ffffffffffffffffffffffffffffffffffffffff82169050919050565b6000819050919050565b600061071b82610722565b9050919050565b600061072d826106e6565b9050919050565b82818337600083830152505050565b6000601f19601f8301169050919050565b61075d816106dc565b811461076857600080fd5b50565b61077481610706565b811461077f57600080fd5b5056fea2646970667358221220a6acb3cd21dc4e5e3873bab78d2235f4d01b56181a5bc3d8693f7f9ca3b78de564736f6c63430008040033",
  "linkReferences": {},
  "deployedLinkReferences": {}
}