{
  "_format": "hh-sol-artifact-1",
  "contractName": "Feedback",
  "sourceName": "contracts/Feedback.sol",
  "abi": [
    {
      "inputs": [
        {
          "internalType": "address",
          "name": "semaphoreAddress",
          "type": "address"
        },
        {
          "internalType": "uint256",
          "name": "_groupId",
          "type": "uint256"
        }
      ],
      "stateMutability": "nonpayable",
      "type": "constructor"
    },
    {
      "inputs": [],
      "name": "Feedback__UsernameAlreadyExists",
      "type": "error"
    },
    {
      "anonymous": false,
      "inputs": [
        {
          "indexed": false,
          "internalType": "bytes32",
          "name": "feedback",
          "type": "bytes32"
        }
      ],
      "name": "NewFeedback",
      "type": "event"
    },
    {
      "anonymous": false,
      "inputs": [
        {
          "indexed": false,
          "internalType": "uint256",
          "name": "identityCommitment",
          "type": "uint256"
        },
        {
          "indexed": false,
          "internalType": "bytes32",
          "name": "username",
          "type": "bytes32"
        }
      ],
      "name": "NewUser",
      "type": "event"
    },
    {
      "inputs": [],
      "name": "groupId",
      "outputs": [
        {
          "internalType": "uint256",
          "name": "",
          "type": "uint256"
        }
      ],
      "stateMutability": "view",
      "type": "function"
    },
    {
      "inputs": [
        {
          "internalType": "uint256",
          "name": "identityCommitment",
          "type": "uint256"
        },
        {
          "internalType": "bytes32",
          "name": "username",
          "type": "bytes32"
        }
      ],
      "name": "joinGroup",
      "outputs": [],
      "stateMutability": "nonpayable",
      "type": "function"
    },
    {
      "inputs": [],
      "name": "semaphore",
      "outputs": [
        {
          "internalType": "contract ISemaphore",
          "name": "",
          "type": "address"
        }
      ],
      "stateMutability": "view",
      "type": "function"
    },
    {
      "inputs": [
        {
          "internalType": "bytes32",
          "name": "feedback",
          "type": "bytes32"
        },
        {
          "internalType": "uint256",
          "name": "merkleTreeRoot",
          "type": "uint256"
        },
        {
          "internalType": "uint256",
          "name": "nullifierHash",
          "type": "uint256"
        },
        {
          "internalType": "uint256[8]",
          "name": "proof",
          "type": "uint256[8]"
        }
      ],
      "name": "sendFeedback",
      "outputs": [],
      "stateMutability": "nonpayable",
      "type": "function"
    },
    {
      "inputs": [
        {
          "internalType": "uint256",
          "name": "",
          "type": "uint256"
        }
      ],
      "name": "users",
      "outputs": [
        {
          "internalType": "bytes32",
          "name": "",
          "type": "bytes32"
        }
      ],
      "stateMutability": "view",
      "type": "function"
    }
  ],
  "bytecode": "0x608060405234801561001057600080fd5b50604051620008d7380380620008d78339818101604052810190610034919061013e565b816000806101000a81548173ffffffffffffffffffffffffffffffffffffffff021916908373ffffffffffffffffffffffffffffffffffffffff1602179055508060018190555060008054906101000a900473ffffffffffffffffffffffffffffffffffffffff1673ffffffffffffffffffffffffffffffffffffffff16639c1121416001546014306040518463ffffffff1660e01b81526004016100db939291906101a7565b600060405180830381600087803b1580156100f557600080fd5b505af1158015610109573d6000803e3d6000fd5b50505050505061025a565b6000815190506101238161022c565b92915050565b60008151905061013881610243565b92915050565b6000806040838503121561015157600080fd5b600061015f85828601610114565b925050602061017085828601610129565b9150509250929050565b610183816101de565b82525050565b6101928161021a565b82525050565b6101a181610210565b82525050565b60006060820190506101bc6000830186610198565b6101c96020830185610189565b6101d6604083018461017a565b949350505050565b60006101e9826101f0565b9050919050565b600073ffffffffffffffffffffffffffffffffffffffff82169050919050565b6000819050919050565b600061022582610210565b9050919050565b610235816101de565b811461024057600080fd5b50565b61024c81610210565b811461025757600080fd5b50565b61066d806200026a6000396000f3fe608060405234801561001057600080fd5b50600436106100575760003560e01c8063365b98b21461005c5780637b5d25341461008c578063a0f44c92146100aa578063a3867d91146100c8578063cec95c2b146100e4575b600080fd5b610076600480360381019061007191906103fa565b610100565b604051610083919061049d565b60405180910390f35b610094610118565b6040516100a191906104b8565b60405180910390f35b6100b261013c565b6040516100bf91906104d3565b60405180910390f35b6100e260048036038101906100dd9190610423565b610142565b005b6100fe60048036038101906100f99190610396565b610275565b005b60026020528060005260406000206000915090505481565b60008054906101000a900473ffffffffffffffffffffffffffffffffffffffff1681565b60015481565b6000801b600260008481526020019081526020016000205414610191576040517f316eff1b00000000000000000000000000000000000000000000000000000000815260040160405180910390fd5b60008054906101000a900473ffffffffffffffffffffffffffffffffffffffff1673ffffffffffffffffffffffffffffffffffffffff16631783efc3600154846040518363ffffffff1660e01b81526004016101ee929190610517565b600060405180830381600087803b15801561020857600080fd5b505af115801561021c573d6000803e3d6000fd5b505050508060026000848152602001908152602001600020819055507fa50a3b4d29437818306d1859dff6fb2b1884a4f487bd1d91a8cc026ac4c9453782826040516102699291906104ee565b60405180910390a15050565b60008054906101000a900473ffffffffffffffffffffffffffffffffffffffff1673ffffffffffffffffffffffffffffffffffffffff16633bc778e3600154858760001c86600154876040518763ffffffff1660e01b81526004016102df96959493929190610540565b600060405180830381600087803b1580156102f957600080fd5b505af115801561030d573d6000803e3d6000fd5b505050507f0cd82a399af74450eab9dbc3b8aef243ddf33c31e929559cfafe164839ff280484604051610340919061049d565b60405180910390a150505050565b60008190508260206008028201111561036657600080fd5b92915050565b60008135905061037b81610609565b92915050565b60008135905061039081610620565b92915050565b60008060008061016085870312156103ad57600080fd5b60006103bb8782880161036c565b94505060206103cc87828801610381565b93505060406103dd87828801610381565b92505060606103ee8782880161034e565b91505092959194509250565b60006020828403121561040c57600080fd5b600061041a84828501610381565b91505092915050565b6000806040838503121561043657600080fd5b600061044485828601610381565b92505060206104558582860161036c565b9150509250929050565b61046c61010083836105fa565b5050565b610479816105a2565b82525050565b610488816105d6565b82525050565b610497816105cc565b82525050565b60006020820190506104b26000830184610470565b92915050565b60006020820190506104cd600083018461047f565b92915050565b60006020820190506104e8600083018461048e565b92915050565b6000604082019050610503600083018561048e565b6105106020830184610470565b9392505050565b600060408201905061052c600083018561048e565b610539602083018461048e565b9392505050565b60006101a082019050610556600083018961048e565b610563602083018861048e565b610570604083018761048e565b61057d606083018661048e565b61058a608083018561048e565b61059760a083018461045f565b979650505050505050565b6000819050919050565b600073ffffffffffffffffffffffffffffffffffffffff82169050919050565b6000819050919050565b60006105e1826105e8565b9050919050565b60006105f3826105ac565b9050919050565b82818337600083830152505050565b610612816105a2565b811461061d57600080fd5b50565b610629816105cc565b811461063457600080fd5b5056fea2646970667358221220d953c4c0b7b5b1bc20a97cf202ce91f3dd23cb2a4ddf63c5d58c8cbc9aa1513164736f6c63430008040033",
  "linkReferences": {},
  "deployedLinkReferences": {}
}